:100000000C9421050C94D21B0C9468050C94680583
:100010000C9468050C9468050C9468050C946805AC
:100020000C9468050C9468050C9415300C94E83019
:100030000C948B2A0C9468050C9468050C94680544
:100040000C9468050C9468050C9468050C9468057C
:100050000C9468050C94D62A0C9468050C946805D9
:100060000C9468050C9468050C9468050C9468055C
:100070000C9468050C9468050C9468050C9468054C
:100080000C9468050C9468050C9468050C9468053C
:100090000C9468050C9468050C9468050C9468052C
:1000A0000C9468050C9468050C94680529001E00E2
:1000B0001F002000210022002B0014001A0008005D
:1000C00015001700E00004001600070009000A00F0
:1000D000E1001D001B0006001900050000000000E3
:1000E000E30001512C0035002A00270026002500DE
:1000F000240023003100130012000C0018001C0023
:10010000340033000F000E000D000B00E500380036
:10011000370036001000110000000000E600025118
:1001200028004C0035021E021F022002210222027A
:10013000005C1E001F002000210022004C00F9007E
:1001400050004F0052002F000100FA00F400F500AB
:1001500051002F0200000000F60001004C002602B2
:100160004B00270226022502240223024E0027000C
:1001700026002500240023004A002E025E005D00B8
:100180005C0030004D002D005B005A005900300229
:1001900000000000620013504C0027023A003B00B0
:1001A0003C003D003E003F0001001E021F022002F5
:1001B000210222020100AC00AB00A9004B002D027D
:1001C000A800AD00AE00AA004E002D000000000007
:1001D00001000100010026024500440043004200E6
:1001E00041004000010027022602250224022302CA
:1001F00001000100010001004A002E000100010081
:10020000010001004D002E0200000000010001006D
:1002100001000100005C0400040004000400015C13
:1002200004000400040004000400040004000400AE
:10023000040004000400040004000400040004009E
:10024000040004000000000004000400040010503A
:10025000DF5C040004000400040004000400040047
:10026000040004000400040004000400040004006E
:10027000040004000400040004000400040004005E
:10028000000000000400040004000400444542553E
:10029000473A2064697361626C65642E0A004445C4
:1002A0004255473A20656E61626C65642E0A000A09
:1002B0000025303862003A200025303258000A729A
:1002C0002F632030313233343536370A007267629B
:1002D0006C6967687420616E696D6174696F6E2006
:1002E0007469636B207265706F727420746F207311
:1002F0006C6176650A007267626C69676874207465
:10030000696D65722064697361626C652E0A0072A2
:1003100067626C696768742074696D657220656EC8
:1003200061626C65642E0A007267626C696768744A
:100330002073657420687376205B4E4F454550529C
:100340004F4D5D3A2025752C25752C25750A0072B8
:1003500067626C69676874207365742068737620BF
:100360005B454550524F4D5D3A2025752C25752C27
:1003700025750A007267626C69676874207261692A
:100380006E626F7720736574206873763A202564F7
:100390002C25642C25642C25750A007267626C6913
:1003A0006768742064697361626C65205B4E4F45B9
:1003B0004550524F4D5D3A207267626C69676874B0
:1003C0005F636F6E6669672E656E61626C65203D66
:1003D0002025750A007267626C6967687420646919
:1003E0007361626C65205B454550524F4D5D3A200C
:1003F0007267626C696768745F636F6E6669672EA7
:10040000656E61626C65203D2025750A0072676229
:100410006C6967687420656E61626C65205B454538
:1004200050524F4D5D3A207267626C696768745F25
:10043000636F6E6669672E656E61626C65203D2034
:1004400025750A007267626C6967687420746F674B
:10045000676C65205B454550524F4D5D3A20726791
:10046000626C696768745F636F6E6669672E656E3C
:1004700061626C65203D2025750A007267626C69B7
:10048000676874206D6F6465205B4E4F4545505220
:100490004F4D5D3A2025750A007267626C69676886
:1004A00074206D6F6465205B454550524F4D5D3A39
:1004B0002025750A007267626C696768745F696EEF
:1004C0006974207267626C696768745F636F6E66D7
:1004D00069672E6D6F6465203D20302E205772694C
:1004E00074652064656661756C742076616C7565F1
:1004F0007320746F20454550524F4D2E0A0072678D
:10050000626C696768745F696E6974206565636FA2
:100510006E666967206973206E6F7420656E616214
:100520006C65642E0A007267626C696768745F6943
:100530006E6974207374617274210A007267626C50
:10054000696768745F696E69742063616C6C656467
:100550002E0A007267626C696768745F636F6E660B
:1005600069672E7370656564203D2025640A0072FA
:1005700067626C696768745F636F6E6669672E7621
:10058000616C203D2025640A007267626C696768AF
:10059000745F636F6E6669672E736174203D2025FA
:1005A000640A007267626C696768745F636F6E6685
:1005B00069672E687565203D2025640A00726768AA
:1005C0006C696768745F636F6E6669672E6D6F64D0
:1005D00065203D2025640A007267626C6967687453
:1005E0005F636F6E6669672E656E61626C65203D44
:1005F0002025640A007267626C696768745F636FC4
:100600006E66696720454550524F4D3A0A003219CF
:100610000A00047F3F1F643214643214783C1E1EAB
:10062000140A052223252628292A2C2D2F3032337F
:100630003536383A3B3D3E4042434547494A4C4EA9
:100640005051535557595A5C5E6062646668696BD5
:100650006D6F71737577797B7D7F81838587898ADB
:100660008C8E90929496989A9C9E9FA1A3A5A7A8E1
:10067000AAACAEAFB1B3B4B6B8B9BBBCBEBFC1C211
:10068000C3C5C6C7C9CACBCCCDCED0D1D2D2D3D4A4
:10069000D5D6D7D7D8D9D9DADADBDBDBDCDCDCDCC2
:1006A000DCDDDDDDDDDCDCDCDCDCDBDBDBDADAD990
:1006B000D9D8D7D7D6D5D4D3D2D2D1D0CECDCCCB12
:1006C000CAC9C7C6C5C3C2C1BFBEBCBBB9B8B6B430
:1006D000B3B1AFAEACAAA8A7A5A3A19F9E9C9A98C0
:1006E000969492908E8C8A89878583817F7D7B7991
:1006F000777573716F6D6B6968666462605E5C5A72
:100700005957555351504E4C4A4947454342403E34
:100710003D3B3A3836353332302F2D2C2A292826C6
:10072000252322FFAA7F55406261636B6C6967686D
:100730007420737465703A2025750A006261636BDA
:100740006C696768742064697361626C650A006231
:1007500061636B6C6967687420656E61626C650AC1
:10076000006261636B6C6967687420746F67676CA3
:10077000653A2025750A006261636B6C696768746D
:100780002064656372656173653A2025750A0062AD
:1007900061636B6C6967687420696E63726561730D
:1007A000653A2025750A00000101010101010101DE
:1007B0000102020202020202020203030303030314
:1007C00003030404040404040405050505050606E2
:1007D00006060607070707070808080809090909A0
:1007E0000A0A0A0B0B0B0C0C0C0D0D0D0E0E0E0F46
:1007F0000F0F1010111111121213131414151516D6
:10080000161717181819191A1A1B1B1C1D1D1E1E46
:100810001F20202122222324242526262728292997
:100820002A2B2C2D2D2E2F303132323334353637C2
:1008300038393A3B3C3D3E3F4041424344454647C0
:1008400048494A4C4D4E4F50515354555658595A99
:100850005B5D5E5F616264656668696B6C6D6F703D
:1008600072737577787A7B7D7E8082838587888AAC
:100870008C8E8F91939596989A9C9EA0A2A3A5A7E3
:10088000A9ABADAFB1B3B5B7BABCBEC0C2C4C6C9DF
:10089000CBCDCFD1D4D6D8DBDDDFE2E4E7E9EBEE98
:1008A000F0F3F5F8FAFDFF0A002530325820006B0E
:1008B0006579626F6172645F7265706F72743A20FD
:1008C000000A0025303258006B6579626F617264EE
:1008D0005F7365745F6C65643A20005B735D004B09
:1008E0006579626F6172642073746172742E0A009C
:1008F0005B575D005B535D005B525D005B445D00D8
:100900005B435D0026034B006500650062006900E3
:100910006F0020004900720069007300200052003F
:10092000650076002E002000340000000E034B000E
:1009300065006500620069006F000000040309049F
:1009400009025B00030100A0FA0904000001030191
:10095000010009211101000122400007058103085F
:10096000000A09040100010300000009211101002F
:10097000012232000705820320000A090402000256
:100980000300000009211101000122220007058354
:1009900003200001070503032000011201100100DC
:1009A00000000810CB56420004010200010631FF8E
:1009B0000974A1010975150026FF009520750881AD
:1009C000020976150026FF00952075089102C005E2
:1009D000010980A101850319012AB700150126B775
:1009E00000950175108100C0050C0901A101850465
:1009F00019012AA002150126A00295017510810097
:100A0000C005010906A101050719E029E715002520
:100A10000195087501810295017508810105071985
:100A20000029FF150026FF009506750881000508BE
:100A3000190129059505750191029501750391012B
:100A4000C00011241FBECFEFDAE0DEBFCDBF04B679
:100A500003FE27C08091580390915903A0915A0337
:100A6000B0915B038730904BA740B04BD1F410920C
:100A700058031092590310925A0310925B0314BE4C
:100A800084B7877F84BF0FB6F894A89580916000E3
:100A9000886180936000109260000FBEE0E0F8E390
:100AA000099511E0A0E0B1E0E6EFF8E602C005909C
:100AB0000D92AE3FB107D9F723E0AEEFB1E001C030
:100AC0001D92A835B207E1F70E94522D0C942F34E5
:100AD0000C940000FF93EF93E091FE01F091FF0171
:100AE000309709F00995EF91FF910895FC018591E8
:100AF000803011F0EFDFFBCF0895FF27E0E230E216
:100B000047FF0CC0419597FF09C0EDE260957095D5
:100B100080959095611D711D811D911D27FF02C05B
:100B2000219530E350E2AA27660F771F881F991F8F
:100B3000AA1FA41710F0A41B63955A95A9F7AA3011
:100B400008F0A95FA05DAF93F3956115710581056C
:100B5000910541F7ED3211F4EF93F395F21718F484
:100B60003F93F395FBCF8F91B5DFFA95E1F70895A9
:100B7000E991F9918591803021F0853219F0AADF51
:100B8000F9CF089520E0E89455915532C1F35033E0
:100B900011F4689455915A3348F4505390F3220F4E
:100BA000022E220F220F200D250FF4CF0EF42195D7
:100BB00089919991533619F3533729F1533559F1E6
:100BC000BC0188279927E8945C3621F48991999192
:100BD00068945591543639F446EF7EF077FF0DC096
:100BE0008FEF9FEF0AC055374AE039F0583540E1A2
:100BF00021F0523642E009F00895FF93EF937DDF34
:100C0000EF91FF91B7CFFF93EF93FC01819180307B
:100C1000B9F360DFFBCFFF93EF9368DFF1CFDF9392
:100C2000CF93CDB7DEB72596A3DFCF91DF9108959F
:100C30000E94B81683E00E9468170E9480134FEF4D
:100C40006FEF80E00E94890F8BE00E947D1360E0CF
:100C500070E0CB010E9464290C94702981E0089512
:100C600081E008950C94300608950C9434061F9387
:100C7000CF93DF9300D000D00F92CDB7DEB749837A
:100C80005A836B833091C00289819A8131111DC0D2
:100C90006623B9F02223A9F00E94C527182F682FD8
:100CA00089819A810E946C2769817A81812F0F90B6
:100CB0000F900F900F900F90DF91CF911F910C9498
:100CC0000D070E949B27182FEFCF0E94C52769812F
:100CD0007A81EDCFFC01262F4081518162817381A1
:100CE00084810C943706CF93DF93D82FC92F60E00F
:100CF0000E946A066D2F7C2FDF91CF910C943506F0
:100D00000E942D29811102C00E94D3290E9414182B
:100D10000C9410090C94130908950E941E220E943D
:100D20008C062FEF84E39CE0215080409040E1F757
:100D300000C000000C94FA2A0F931F93CF93DF9307
:100D4000EC0161E00E946A068C01BE010E9432063D
:100D5000882371F1BE01C8010E946E17882341F1FA
:100D6000BE01C8010E94CC19882311F1BE01C8013F
:100D70000E94211A8823E1F0BE01C8010E94F41AE2
:100D80008823B1F0BE01C8010E94C015882381F0FC
:100D90008A81882341F101308CE5180779F00F3DF5
:100DA0008CE51807E9F001151C45E9F40E948D0651
:100DB00080E0DF91CF911F910F91089590913603BC
:100DC000892F8E7F90FF81608093360380FF05C05E
:100DD0008EE992E00E947605EBCF8CE892E0FACFA4
:100DE0000E94D329E5CFCE01DF91CF911F910F91C2
:100DF0000C942E0608950C94FA0681E008950C9444
:100E0000FD06CF93C82F0E94FB068C2FCF910C9428
:100E1000FF0690E080E008950895972F70E026E0A7
:100E2000929F600D711D1124FB019CE3899FE00DD1
:100E3000F11D1124EE0FFF1FE455FF4F8591949192
:100E40000895FC01EE0FFF1FE155FD4F8591949130
:100E50000895CF93DF930E940D070E943408EC01A0
:100E6000811521E5920708F048C0811530E5930708
:100E700008F0AFC0803E910518F5803C910508F060
:100E800096C0883A910570F4853A910508F08CC0B7
:100E90008130910531F10497813A910510F1D0E04C
:100EA000C0E01FC08F3B9105D1F3C85AD0E0CC0FF2
:100EB000DD1FCF5ADE4F0990D881C02DD46411C0F8
:100EC000811540E3940788F4C11580E2D80708F043
:100ED00074C0C83ED10528F0CE019A9581159F4176
:100EE000F0F6CE01DF91CF910895811530E493079C
:100EF00008F466C0DF70D06AF4CF8115964560F5BE
:100F0000C11585E5D80708F096C0C11594E5D90745
:100F1000F0F4C11523E5D20708F079C0C11532E518
:100F2000D30708F46FC0CE018370992721E030E029
:100F300002C0220F331F8A95E2F7C695C69540E29C
:100F4000C49FE0011124C22BD32BDC68CACFDC2F55
:100F5000CC27C46FD06AC5CFC1158AE5D80788F4FD
:100F6000C11599E5D90708F071C0CE0198558F3F9A
:100F7000910511F008F093CFDC2FCC27C06FD06A19
:100F8000B0CFCE0190568115904208F088CF8D2FBA
:100F90008F710E94CC0890E0982F882788279F7136
:100FA0009C012C2BE90150C0A497D0649ACF805C9F
:100FB00091090E942107EC0194CFCE019F70F9CFD7
:100FC0009927D3FF03C0EC01D86C8BCFEC01D06C18
:100FD00088CF74E0969587957A95E1F783702C2FEA
:100FE00026952695237040E2249F90011124382BEA
:100FF0008C2F8370C1E0D0E002C0CC0FDD1F8A953A
:10100000E2F7A1CFDC2FCC27C16FD06A6ACFCE0127
:101010008370992721E030E002C0220F331F8A95A8
:10102000E2F7C695C69580E2C89FE0011124C22B65
:10103000D32BDA6856CF8C2F0E94CC08C82FD0E073
:10104000DC2FCC27CC27DF71D0624BCF8C2F8F7059
:101050000E94CC0834E0D695C7953A95E1F7CF7059
:10106000DC2FC82FD0693DCF803E910599F1C8F49F
:101070008133910509F476C048F48932910509F469
:101080006AC08A32910509F474C0089589339105C4
:10109000D1F082389105B9F08533910509F454C037
:1010A0000895843E910599F138F4823E9105F9F056
:1010B000833E910509F10895863E910599F1873E99
:1010C0009105B9F1089520913C032370A1F080EEC1
:1010D00090E0089520913C0320FD52C030913D03E3
:1010E00030FF09C024FF4FC090E080E004C0209191
:1010F0003C0322FDF7CF089520913C0322FD46C01A
:1011000030913D0330FDE3CF24FFF5CFEDCF2091AB
:101110003D0321FFF0CF80913C0384FDE5CF87EEB6
:1011200090E0089520913C0323FFE5CF24FDDCCF20
:10113000F6CF20913C0323FD2CC030913D0331FFBD
:10114000E3CF84EE90E0089520913C0325FFD3CFB8
:1011500089E290E0089520913C0325FFCCCF85E300
:1011600090E0089520913C0326FFC5CF8AE290E0ED
:10117000089520913C0326FFBECF81E390E00895BF
:1011800089E390E0089583EE90E0089582EE90E088
:10119000089586EE90E0089590913C0392FF06C07A
:1011A000282F28712830F9F4877F846093FF06C0C8
:1011B000282F28712831F1F4877E846120913D0326
:1011C00020FF06C0382F38713830D9F4877F81600E
:1011D00021FF06C0282F28712831D1F4877E816134
:1011E00094FD877E0895282F24712430F9F68B7F93
:1011F0008860DCCF282F2471243101F78B7E886131
:10120000DDCF382F3171313019F78E7F8860E0CF14
:10121000282F2171213121F78E7E8861E1CF089539
:101220000C940F0908950C941209E82FF0E0E05097
:10123000FE4F80810895CF92DF92EF92FF920F933D
:101240001F93CF93DF938EEB92E00E94760580E0B0
:10125000E82E82E0F82ED0E0C0E099EBC92E92E0B3
:10126000D92E01EB12E0DF93CF93DF92CF920E9451
:101270000F0686EB92E00E947605F70181917F01CF
:101280000E9419291F928F931F930F930E940F069C
:101290008FEA92E00E94760521968DB79EB7089658
:1012A0000FB6F8949EBF0FBE8DBFCA30D105D9F6D8
:1012B000DF91CF911F910F91FF90EF90DF90CF9032
:1012C000089580EA8A95F1F70895F894E82FE29559
:1012D000EF70A1E2AE0FB0E04C918F7021E030E0F2
:1012E000B90102C0660F771F8A95E2F7CB01962FEE
:1012F000909594239C93EE5DF0E09081892B808300
:10130000789408950895EF92FF920F931F93CF93CF
:10131000DF93CDB7DEB760970FB6F894DEBF0FBE90
:10132000CDBF0E94130B8091140181112AC086E069
:10133000E7E4F1E0DE01119601900D928A95E1F764
:10134000FE01379684E0DF011D928A95E9F78AE075
:101350003697AAE0B1E001900D928A95E1F786E018
:10136000EFE7F1E0DE011B9601900D928A95E1F71F
:1013700086E0FE013B96A4E0B1E001900D928A95D3
:10138000E1F78091140195E0811190E090931602AD
:1013900085E0891B809315020AE011E09FE0E92EA9
:1013A00091E0F92EF80181918F010E946509E01604
:1013B000F106C1F704E011E08AE0E82E81E0F82EA2
:1013C000D8018D918D010E946509E016F106C1F7E3
:1013D0008AE0EAE0F2E0DF01982F1D929A95E9F7A2
:1013E000E0E0F2E0DF011D928A95E9F785E00E94D6
:1013F000B80A0E94800660960FB6F894DEBF0FBE52
:10140000CDBFDF91CF911F910F91FF90EF900C9482
:10141000280B0E94F60A8823F9F08091150290E0CB
:1014200080509E4F0E94580B811113C0809114026E
:101430008F5F80931402863050F0E0911502F0E047
:10144000E050FE4F85E0DF011D928A95E9F70C948C
:101450008A0610921402FBCF8091160290E0805011
:101460009E4F0E94850B0C948209AF92BF92CF923F
:10147000DF92EF92FF920F931F93CF93DF93CAE017
:10148000D1E00AE012E08FE0C82E81E0D82EB12C26
:10149000EE24E394F12C8991F894E82FE295EF7013
:1014A000A1E2AE0FB0E02C918F70A70102C0440FF3
:1014B000551F8A95E2F7CA01922F982B9C93EE5DF7
:1014C000F0E0908180958923808378940E9461095F
:1014D000E4E0F1E030E020E0A12C4191A42FA295BE
:1014E000AF70A05EB0E08C9190E04F7002C0959517
:1014F00087954A95E2F780FD37C08E2D022E01C0F8
:10150000880F0A94EAF7A82A2F5F3F4F263031054B
:1015100021F7FE01319780810E946509F8018081E1
:10152000A81621F1A08281E0B82A0F5F1F4FCC16C8
:10153000DD0609F0B0CF6091160270E060507E4F7A
:101540002B2D45E08AE092E00E94B90A0E94090A28
:101550008B2DDF91CF911F910F91FF90EF90DF9036
:10156000CF90BF90AF90089580E0CDCF80E0DCCFEA
:101570000895FF920F931F93CF93DF93F82E092FB7
:10158000162FD72FC42F222349F081E08093190210
:101590000E94BB2A9093180280931702809119022F
:1015A0008823A1F080911702909118020E94C72A07
:1015B000069760F0EF2DF02FA12FBD2FCF018C0FDC
:1015C000911DE817F90741F410921902DF91CF91AC
:1015D0001F910F91FF90089521912D93F2CF55986F
:1015E0005D9889B185FB882780F9089580911A025A
:1015F000811110C08091D80080618093D8008AE169
:101600008A95F1F700C08091D90080FD0AC082E080
:1016100080931A0281E090911A02913009F080E0E3
:10162000089581E0F5CF0E94EF0A80931401809124
:10163000140166E0882349F080E00E94480C0E9473
:10164000F60A882321F00C942F0B86E0F6CF08953C
:101650000E94F60A811102C00C94350B089562E0D5
:1016600070E085E191E00C947F1B62E070E085E121
:1016700091E00C94881B0E948C12882361F084E214
:1016800092E00E94921281E090E00E94611C892BFE
:1016900011F40C948F12089580912302883039F44C
:1016A00060E084E292E00E94901410922302089578
:1016B000CF93DF93D82FC92F0E943B0B90E080E09F
:1016C0000E94611C9C0180E021153105C9F4ED2FB9
:1016D000FC2FD901A35EBD4F8C9181932F5F3F4FAB
:1016E00025303105B1F70E942F16882361F00E9442
:1016F000331680931C0282E292E00E942D1981E051
:10170000DF91CF91089580E0F4CFCF93DF93D82F6E
:10171000C92F0E944C0BED2FFC2F90E080E021910F
:10172000DC01A35EBD4F2C93019685309105B9F77E
:1017300080911C020E94A61782E292E0DF91CF9175
:101740000C942419CF92DF92EF92FF920F931F9384
:10175000CF93DF93D62FC72F982F711113C0442337
:1017600029F0E82FF0E0E955F84F9491692F792F8F
:10177000892FDF91CF911F910F91FF90EF90DF9014
:10178000CF900895272F30E0E82FF0E0442321F098
:10179000E955F84FE491F0E086E0D89F70011124FC
:1017A0000FEF10E0C701B8010E94C2328D2F90E008
:1017B000880F991FA5E5A69FA001A79F500D112492
:1017C000841B950BD82EDD0CD80EC801821B930B01
:1017D0008E9FA0018F9F500D9E9F500D1124952F1D
:1017E000DC9EE0011124CD2FDD27D801AC1BBD0B01
:1017F000ED01CE9FD001CF9FB00DDE9FB00D112423
:101800008B2FE801CD19D1096E01C29EE001C39E64
:10181000D00DD29ED00D1124CD2FDD270C1B1D0B1A
:101820000E9FE0010F9FD00D1E9FD00D11242E2F73
:1018300063307105D9F03CEFE31633E0F30668F44A
:1018400061307105B9F062307105C1F0AFEFEA1691
:10185000F10448F4852F9D2F06C06430710589F08E
:1018600066307105B9F3692F722F83CF9B2F8E2FAE
:10187000252FF9CF9E2F2B2F852FF5CF8D2F9E2F24
:10188000F7CF8E2F2D2FEFCF41E00C94A20B0895B0
:10189000E8E2F1E08083618308950C94440CCF93D7
:1018A000DF93982F762F842FE901692F0E944D0C2A
:1018B000798368838A83DF91CF91089580919C0218
:1018C000982F9E7F29F48170826080939C020895F6
:1018D0008635E8F381708465F8CF88E090E00C9459
:1018E000D0330F931F93CF93DF938B01D82FC92F42
:1018F0000E945E0CA8016D2F7C2F88E090E0DF91A4
:10190000CF911F910F910C94EE33ECE9F2E083E05C
:10191000808311828FEF828383831482E9E9F2E06E
:1019200082818360828363E070E08FEF9FEF0C948D
:10193000710C8091360380FF76C085EF95E09F9310
:101940008F930E940F06809136030F900F9080FFB7
:101950006AC080919C0281701F928F9388ED95E000
:101960009F938F930E940F06809136030F900F90E4
:101970000F900F9080FF57C080919C0286951F9218
:101980008F938DEB95E09F938F930E940F0680912C
:1019900036030F900F900F900F9080FF44C08091FE
:1019A0009D021F928F9383EA95E09F938F930E94ED
:1019B0000F06809136030F900F900F900F9080FFCD
:1019C00032C080919E021F928F9389E895E09F9389
:1019D0008F930E940F06809136030F900F900F9007
:1019E0000F9080FF20C080919F021F928F938FE6FF
:1019F00095E09F938F930E940F06809136030F907E
:101A00000F900F900F9080FF0EC08091A0021F9248
:101A10008F9383E595E09F938F930E940F060F901D
:101A20000F900F900F90089580919C0280FF02C04C
:101A30008695089580E00895CF93DF9300D000D07D
:101A4000CDB7DEB79091A002933018F49F5F9093CA
:101A5000A0028823B1F080919C0290919D02A091F8
:101A60009E02B0919F0289839A83AB83BC83BC01A1
:101A7000CD010F900F900F900F90DF91CF910C94AC
:101A8000710C0F900F900F900F90DF91CF910895F0
:101A900081E00C941C0DCF93DF9300D000D0CDB724
:101AA000DEB79091A002992319F091509093A00273
:101AB0008823B1F080919C0290919D02A0919E029A
:101AC000B0919F0289839A83AB83BC83BC01CD0113
:101AD0000F900F900F900F90DF91CF910C94710C9D
:101AE0000F900F900F900F90DF91CF91089581E0AC
:101AF0000C944B0D70E00C94241860912901809196
:101B00009C0280FF0AC08091280123E0829FC001CF
:101B1000112482599D4F0C947A0D80912A01909145
:101B20002B0123E0829FF0011124E259FD4F891718
:101B300050F71182108212828F5F3396F8CF909106
:101B40009C0290FF14C090912A0120912B0133E058
:101B5000939FF0011124E259FD4F921710F00C945D
:101B60007D0D8183608342839F5F3396F6CF089516
:101B7000CF93DF9300D00F92CDB7DEB790919C0248
:101B800090FF0AC09E012F5F3F4F0E944F0C4B8178
:101B900069818A810E949F0D0F900F900F90DF91B5
:101BA000CF910895CF93DF93EC01EC81F0E0ED5DF0
:101BB000F94F4491ECE9F2E0628181810E94B80D15
:101BC0008C818F5F8C83DF91CF910895CF93DF93CA
:101BD000EC01ECE9F2E0438162818C810E94B80D56
:101BE0008C818F5F8C83DF91CF9108950F931F932A
:101BF000CF93DF9300D00F92CDB7DEB78C018091E9
:101C00002C0281110AC09E012F5F3F4F4FEF6FEFF3
:101C10000E944F0C8A8180932C02F801648161300C
:101C200049F06230F1F080912C0240E0662331F0FF
:101C300040E019C060912C0240E080E00E949F0DBE
:101C4000F801848190E0019663E070E00E94D63252
:101C500084830F900F900F90DF91CF911F910F9180
:101C6000089540912C0280E060E0E8CF4F925F92AF
:101C70006F927F928F929F92AF92BF92CF92DF929C
:101C8000EF92FF920F931F93CF93DF9300D000D07A
:101C900000D00F92CDB7DEB7182FF62E042FE22E0C
:101CA00090919C0290FF5DC0E92FE695AE2FB0E0C9
:101CB000AA57BE4F8C91809399029E7F923009F073
:101CC00067C09E012F5F3F4F812F0E944F0C4B81B9
:101CD00069818A810E949F0D80919D02811308C0B5
:101CE00080919E028F1104C080919F02801729F07D
:101CF00080919B02826080939B0210939D02F092E0
:101D00009E0200939F02EE2009F4A2C080919C02E3
:101D100090919D02A0919E02B0919F028C839D8321
:101D2000AE83BF83BC01CD010E94710C809136034C
:101D300080FF17C080919F021F928F9380919E0217
:101D40001F928F9380919D021F928F938FE493E057
:101D50009F938F930E940F060FB6F894DEBF0FBEBD
:101D6000CDBF27960FB6F894DEBF0FBECDBFDF9173
:101D7000CF911F910F91FF90EF90DF90CF90BF9088
:101D8000AF909F908F907F906F905F904F9008954D
:101D9000823019F400919F029FCF863019F4109180
:101DA0009D029ACF8930D9F3893109F095CFE95155
:101DB0008E2F8170682E81E0762C7826E695F0E0F3
:101DC000ED5DF84FC590D490512CDD2494E7892E19
:101DD00093E0992E60912C01561618F00E947D0D0B
:101DE0007BCFA52CB12C5C9CC0015D9C900D112477
:101DF00070E00E94C232412E611028C0460E8091D0
:101E0000360380FF11C0DF92CF921F927F921F9204
:101E10004F921F925F929F928F920E940F060FB671
:101E2000F894DEBF0FBECDBF80912A01A80EB11C71
:101E30009501220F331F2A0D3B1D22593D4F402F84
:101E40006F2D842D0E944F0C5394C4CF461AD7CFC8
:101E50008091360380FF85CF1F920F931F92FF92D0
:101E60001F921F9388E293E073CF282FECE9F2E0F2
:101E7000818143816281885F0C94360E81E00C94ED
:101E8000350F282FECE9F2E081814381628188508F
:101E90000C94360E81E00C94410F282FECE9F2E00F
:101EA000628131E1630F08F46FEF438181810C940B
:101EB000360E81E00C944D0F282FECE9F2E06281A0
:101EC00031E1631B08F460E0438181810C94360E9C
:101ED00081E00C945C0F282FECE9F2E0438131E1C2
:101EE000430F08F44FEF628181810C94360E81E03C
:101EF0000C946B0F282FECE9F2E0438131E1431B96
:101F000008F440E0628181810C94360E81E00C94EB
:101F10007A0F21E00C94360E20E00C94360EEF92EE
:101F2000FF921F93CF93DF93EC0110E0EE24EA942D
:101F3000F12C60912C01161770F00E947D0D9A8192
:101F40008C8190FF27C08F5F8C83DF91CF911F9191
:101F5000FF90EF90089520912A01422F410F5527BD
:101F6000551FCA019A01220F331F280F391F22590A
:101F70003D4F70E0C7010E94D632962F8C81409170
:101F80009F0260919E02199F800D11240E944F0CA8
:101F90001F5FCFCF8150D8CF9F92AF92BF92CF9289
:101FA000DF92EF92FF920F931F93CF93DF93EC0199
:101FB0008A81BB24BA9480FD02C0BB24B3948C8177
:101FC00081110AC081E0B81227C080912C01815094
:101FD00080932E0281E08C83A12C80912C01A81685
:101FE000F0F00E947D0D80912E0291E0B91260C048
:101FF000811159C080912C01815080932E021C8246
:10200000DF91CF911F910F91FF90EF90DF90CF90D4
:10201000BF90AF909F90089510922E02DBCF8091D9
:102020002A01CA2CD12C8C0D9D2D911D8C01000FE5
:10203000111F080F191F02591D4FF801118210823C
:10204000128234E0E32EF12C912C80912E02890D26
:102050008D301CF16CE00E94B432892F082E000CE8
:10206000990BC816D90691F480919F028E9DA0010C
:102070008F9D500D1124559547955595479598017D
:1020800060919E0280919D020E944F0C9B0CF1E09A
:10209000EF1AF108D1F6A394A0CF87FFDFCF90917C
:1020A0002C01890FDBCF815080932E02BC82A8CFF8
:1020B00090E0019660912C0170E00E94D6328093EE
:1020C0002E028C839DCFEF92FF920F931F93CF939D
:1020D000DF93EC018C81811109C081E08C83109227
:1020E0002D0292E0909327018093260180912A018E
:1020F00090912B0123E0829FF0011124E259FD4FC2
:10210000891768F110E003E060912C01161768F15F
:102110000E947D0D8091260120912D02280F209391
:102120002D0290912701980F90932701191654F4CE
:10213000022E000C330B40912C014150550B2417FB
:10214000350734F0819580932601813009F41C8293
:10215000DF91CF911F910F91FF90EF900895118221
:10216000108212828F5F3396CBCFE12EF12C70E07C
:10217000C7010E94D63220912A01820F482F50E0D9
:1021800020912D02022E000C330BE216F306BCF058
:1021900020912701022E000C330B2E153F057CF0F9
:1021A000809F9001112422593D4F40919F026091E0
:1021B0009E0280919D020E944F0C1F5FA5CFFA01E5
:1021C000EE0FFF1FE40FF51FE259FD4F1182108241
:1021D0001282F3CFEF92FF920F931F93CF93DF936F
:1021E000CDB7DEB72E970FB6F894DEBF0FBECDBFCA
:1021F0008D879E87AD85BE8514961C91212F30E07A
:10220000D9010E941A339B01AC010E9430336983CB
:102210007A838B839C83E0E2F0E0E11BF109A5E582
:10222000B0E09B01AC010E94303369877A878B87CD
:102230009C879F01DF010E9412336D837E838F8311
:1022400098879B01AC010E943B339B01AC016981E3
:102250007A818B819C81260F371F481F591F698502
:102260007A858B859C850E94EA32F22E822F90E03F
:1022700079E2721788F183E0289F90011124359547
:102280002795122F109500E085E5E82EEF18809134
:102290002C01081780F10E947D0DAD85BE85149636
:1022A0009C9181E0992319F0903219F48FEF80937B
:1022B000250180912501890FED85FE8584832E9669
:1022C0000FB6F894DEBF0FBECDBFDF91CF911F9147
:1022D0000F91FF90EF90089525E530E0D901A81BFC
:1022E000B90B9D01220F331F2A0F3B1F37FFC7CFAA
:1022F0002F5F3F4FC4CF8E2D01FD8F2D20912A01DE
:10230000E22FE00FFF27FF1F9F01220F331F2E0F29
:102310003F1F22593D4F412F60919E020E944F0C5A
:102320000F5FB5CF0F931F93CF93DF93EC0110E0B6
:1023300000E090912C019017110609F06CF40E94B6
:102340007D0D8C8190E00196817099278C83DF91BF
:10235000CF911F910F91089580912A01A801480FF4
:10236000511D9A01220F331F240F351F22593D4F53
:102370004C8160919E0280919D0296959017110666
:1023800051F04CF0442349F040919F020E944F0CC1
:102390000F5F1F4FCECF4423B9F340E0F7CF8F92AA
:1023A0009F92AF92BF92CF92DF92EF92FF920F93E4
:1023B0001F93CF93DF93FC01B280948081E08483EC
:1023C00000E015E05BE4A52E88248394EE24EA94D3
:1023D000F12C7BE4C72ED12C80912C01081770F0D2
:1023E000DF91CF911F910F91FF90EF90DF90CF90F1
:1023F000BF90AF909F908F900C947D0DC02FD0E038
:102400001C9FF0011D9FF00D1124EE5CFD4F9110FB
:102410001CC01382128280912A018C0F9D2F911D66
:102420009C01220F331F280F391F22593D4F1C9F3B
:10243000F0011D9FF00D1124EE5CFD4F4281618182
:1024400080810E944F0C0F5FC7CF2381222379F137
:102450002150238334818A2D821B311101C0822FA8
:102460001C9FF0011D9FF00D1124EE5CFD4F90911B
:102470009F02899FC0011124B6010E94C23262836B
:10248000211104C0332311F01482A38222E02B1502
:1024900010F21C9FF0011D9FF00D1124EE5CFD4F0A
:1024A00080919D02808380919E028183B4CF0E949F
:1024B000AB33823091400CF0AECF82E08B1530F51B
:1024C0000E94AB33B7010E94D6321C9FF0011D9FC2
:1024D000F00D1124EE5CFD4F808322E02B15C8F433
:1024E0000E94AB3320919E022695622F70E00E94DD
:1024F000D632280F1C9FF0011D9FF00D1124EE5CB9
:10250000FD4F21831282A382848285CF80919D0218
:10251000DCCF20919E02EECF80919B020895109215
:102520009B020895CF93DF93EC0185E0ECE9F2E0A4
:10253000DE0101900D928A95E1F7809199029091C8
:102540009A02A0919B028D839E83AF83DF91CF91EE
:102550000895E9E9F2E0118282818460828308951E
:1025600060919C02669570E04BE050E08DE291E056
:102570000E94BB33892B19F481E080939A020E9458
:10258000BB2A909393028093920280919B02846075
:1025900080939B028091360380FF08C08FE093E018
:1025A0009F938F930E940F060F900F9008951092A3
:1025B0009A0280919B02846080939B0280913603F3
:1025C00080FF08C086EF92E09F938F930E940F06D2
:1025D0000F900F900895CF93DF9300D000D0CDB728
:1025E000DEB790919C0290FF66C0917081114DC042
:1025F000926090939C0280919B02816080939B02E9
:10260000662309F449C080919C0290919D02A0919B
:102610009E02B0919F0289839A83AB83BC83BC01E5
:10262000CD010E94710C8091360380FF0FC0809114
:102630009C0286951F928F9389E994E09F938F93D4
:102640000E940F060F900F900F900F9060919C02C8
:10265000669570E04BE050E08DE291E00E94BB3364
:10266000892B31F10E94D71281E08093950240912D
:102670009F0260919E0280919D020F900F900F909B
:102680000F90DF91CF910C948C0F8B3210F09465EA
:10269000B0CF880F982BADCF8091360380FFD6CF77
:1026A00080919C0286951F928F938BE794E0C6CF12
:1026B0000E94B012D9CF0F900F900F900F90DF9122
:1026C000CF910895682F80919C0286958F5F8B3201
:1026D00008F081E00C94EB1281E00C946213682FF7
:1026E00090919C0296958FEF890F913009F48AE2C0
:1026F0000C94EB1281E00C946F1361E00C94EB12DC
:1027000080919C02816080939C028091360380FFBF
:102710000DC01F9281E08F938DE094E09F938F9383
:102720000E940F060F900F900F900F9080919C02C7
:1027300086950C947D1360E00C94EB1280919802C6
:10274000811165C08091360380FF14C08CE395E051
:102750009F938F930E940F06809136030F900F90E6
:1027600080FF08C086E295E09F938F930E940F063A
:102770000F900F900E942D29811110C08091360377
:1027800080FF08C08EEF94E09F938F930E940F0606
:102790000F900F900E94D3290E94850C0E946D0C0F
:1027A00060939C0270939D0280939E0290939F027F
:1027B00080919B02836080939B026E7FC1F4809125
:1027C000360380FF08C085EB94E09F938F930E94AF
:1027D0000F060F900F900E94850C0E946D0C609365
:1027E0009C0270939D0280939E0290939F020E9490
:1027F0005E0C0E94990C0E94A91280919C0280FF9D
:1028000003C086950E949B1381E0809398020895EF
:10281000CF93DF9300D000D0CDB7DEB780919C027C
:102820008E7F80939C0280919C0290919D02A0914A
:102830009E02B0919F0289839A83AB83BC83BC01C3
:10284000CD010E94710C8091360380FF0FC08091F2
:102850009C0281701F928F9385ED93E09F938F93DD
:102860000E940F060F900F900F900F900E94D712AA
:1028700080919B02816080939B029FEFA0E7B2E072
:102880009150A040B040E1F700C000000F900F90C1
:102890000F900F90DF91CF910C947D0D80913603B6
:1028A00080FF10C080919C02809581701F928F9351
:1028B00084E494E09F938F930E940F060F900F90F3
:1028C0000F900F9080919C0280FD0C9408140C9442
:1028D000801380919C028E7F80939C0280913603AE
:1028E00080FF0CC01F921F928BE993E09F938F9300
:1028F0000E940F060F900F900F900F900E94D7121A
:1029000080919B02816080939B022FEF80E792E091
:10291000215080409040E1F700C000000C947D0DF4
:102920001F93CF93DF93EC01162F8F8180FF0CC094
:10293000888180FF24C080919C02816080939C02EA
:10294000888186950E94EB128F8181FF06C0212F1E
:102950004B816A8189810E94360E8F8182FF05C07A
:102960008E81882379F00E94B0128F8183FF03C08B
:1029700081E080939502DF91CF911F9108950E948D
:102980006914E2CF0E94D712F0CFEF92FF920F931B
:102990001F93CF93DF9380919A02882309F475C027
:1029A00080919902E0919C02E695E81BE0939402E5
:1029B000823009F071C0F0E0E15EF94FE491CE2F72
:1029C000D0E002ED1DE080919502882389F01092FD
:1029D00095020E94BB2A9E0120953095280F391F31
:1029E00030939302209392021092970210929602D3
:1029F00080919202909193020E94C72A8C179D07A2
:102A000008F443C080913102882311F11092310201
:102A100080912F02909130020E94C72A80339547FF
:102A2000B8F00E94BB2A9093300280932F028091CD
:102A3000360380FF08C08DEC92E09F938F930E9435
:102A40000F060F900F9080919B02886080939B02ED
:102A5000E0909602F0909702E0919202F09193023A
:102A6000CE0FDF1FD0939302C093920282E992E0CF
:102A7000F80109958091960290919702892B29F48B
:102A8000EF2819F081E080933102DF91CF911F91FF
:102A90000F91FF90EF900895863049F4F0E0E45EE6
:102AA000F94FE491CE2FD0E006EE1DE08CCF8930B7
:102AB00051F4E695F0E0E75EF94FE491CE2FD0E0D7
:102AC0000FE81FE080CF8F3051F4E695F0E0EA5E2A
:102AD000F94FE491CE2FD0E00CEC1FE074CF85319C
:102AE00049F4F0E0ED5EF94FE491CE2FD0E003E63B
:102AF00010E169CFC8E2D0E00AEE10E1883109F4B4
:102B000062CF833239F4E1E1F6E0C591D49106EF6A
:102B10001DE059CFC4EFD1E002E911E1843209F49C
:102B200052CFC0EDD7E007E41CE0853209F04BCF6F
:102B30008E2F63E00E94A832E92FF0E0E25FF94FA8
:102B4000E491CE2FD0E00FEC11E13DCFFA018111DD
:102B50000994FB01FDCFCF93DF93C82FD62F0E949E
:102B6000140D8C1740F00E94140D8D1720F4DF9186
:102B7000CF910C946C138C2FDF91CF910C947D131B
:102B80001F93CF93DF93EC01FB011281111110C051
:102B90000E9462288272FE01E35CFC45E431F1058B
:102BA00008F05BC0EF5CFB4C0C940C330E944E149D
:102BB000812FDF91CF911F9108954AE753E16CE691
:102BC00073E10E94A615F4CF4CE653E16AE773E186
:102BD000F8CF4AE45FE06EE37FE0F3CF4EE35FE0DF
:102BE0006AE47FE0EECF48E65FE069E57FE0E9CFA9
:102BF00049E55FE068E67FE0E4CF46E85FE067E74D
:102C00007FE0DFCF47E75FE066E87FE0DACF47E7C6
:102C10005DE068E47DE0D5CF48E45DE067E77DE016
:102C2000D0CF81E00E947D13C3CF65E082E00E9497
:102C3000AB15BECF68E086E0FACF6EE089E0F7CF53
:102C400064E18FE0F4CF67E185E1F1CF88E1EACF7D
:102C500062E289E1ECCF83E2E5CF11E0A9CF809178
:102C6000A102817008958091A1028695869586952E
:102C700008950E942D29811102C00E94D3290E942B
:102C80005B298093A102803320F087708862809353
:102C9000A1029091A102892F817090FF04C0892F19
:102CA0008695869586950C94A6178091A102982FFB
:102CB000969596959695883240F49F5F990F990F57
:102CC000990F8770892B8093A1028091A102816066
:102CD0008093A1020E945F298091360380FF11C07A
:102CE0008091A1028695869586951F928F938FE895
:102CF00097E09F938F930E940F060F900F900F9075
:102D00000F908091A1028695869586950C94A617C2
:102D10008091A102982F987F79F088508093A1022A
:102D2000887F91E009F490E08091A10290FB80F906
:102D30008093A1020E945F298091360380FF11C019
:102D40008091A1028695869586951F928F9387E73D
:102D500097E09F938F930E940F060F900F900F9014
:102D60000F908091A1028695869586950C94A61762
:102D70008091A10280FD1FC081608093A1028130FB
:102D800019F489E08093A1028091A1020E945F2939
:102D90008091360380FF08C08FE497E09F938F9364
:102DA0000E940F060F900F908091A1028695869544
:102DB00086950C94A61708958091A10280FF14C0F7
:102DC0008E7F8093A1020E945F298091360380FF4D
:102DD00008C08CE397E09F938F930E940F060F909B
:102DE0000F9080E00C94A6170895CF93C091A10294
:102DF000C1708091360380FF0CC01F92CF9381E693
:102E000097E09F938F930E940F060F900F900F9063
:102E10000F90CC2319F0CF910C94DC16CF910C9429
:102E2000B8169091A102892F8695869586958F5F19
:102E30008F719770863080F5880F880F880F892BE7
:102E40008093A1028091A102887F91E009F490E033
:102E50008091A10290FB80F98093A1020E945F29DA
:102E60008091360380FF11C08091A10286958695DE
:102E700086951F928F9388E297E09F938F930E948D
:102E80000F060F900F900F900F908091A1028695E2
:102E9000869586950C94A6179093A102D3CF863081
:102EA00008F085E09091A1029770282F220F220F41
:102EB000220F922B9093A102987F21E009F420E049
:102EC0009091A10220FB90F99093A1020C94A61777
:102ED0000E944F178091A1020C945F299C01FB0175
:102EE0008281882361F12F3BFCE53F07F9F060F414
:102EF0002D3BECE53E07A9F02E3BFCE53F0799F0A2
:102F00002C3B3C4549F00895203CECE53E0789F018
:102F1000213C3C4589F0089585E00E94681780E0D7
:102F2000089580E0FACF0E948816F9CF0E945516C6
:102F3000F6CF0E94F516F3CF0E941117F0CF81E073
:102F40000895259A2D9808952D980895CF93DF938D
:102F5000CDB7DEB728970FB6F894DEBF0FBECDBF52
:102F60008983863060F581112CC0809180008F7735
:102F7000809380000E94A4174981242F30E0AFEF96
:102F8000BFEF0E941A3325E030E040E050E00E949D
:102F9000EA32C9012C3764E13607C8F469E070E011
:102FA0000E94C232709389006093880028960FB601
:102FB000F894DEBF0FBECDBFDF91CF91089525E01D
:102FC000298380918000806880938000D5CF2A502B
:102FD000374D4F4F5F4FB42FA32F922F8827BC013F
:102FE000CD0125EF38E241E050E00E94EA3229832A
:102FF0003A834B835C83CA01B9010E9498329B01DA
:10300000AC0169817A818B819C810E949832BB27B7
:10301000A92F982F872FBC010097A140B10511F669
:103020006FEF7FEFBFCF08950E94A11782E88093D2
:10303000800089E1809381008FEF9FEF909387005C
:10304000809386000C9439169C01AB01569A6BB1A3
:103050006F7B7BB17064EFB7F894CA01880F991F3A
:10306000840F951F820F931F8217930741F4EFBFC0
:103070008FE594E00197F1F700C000000895D901B1
:103080004D919D0158E07BB9000000C047FF6BB92E
:10309000440F000000C000C000C06BB900C05A95CA
:1030A00091F7E2CF08950C945218CF93DF9380915B
:1030B0001401811106C087EF8093390186EF809358
:1030C000380120913901A22FA295AF70E1E2EA0FF9
:1030D000F0E030812F7081E090E0BC01022E01C051
:1030E000660F0A94EAF7462F409543234083E2E2B5
:1030F000EA0FF0E03081362B308340913801E42F25
:10310000E295EF70C1E2CE0FD0E038814F70042E0F
:1031100001C0880F0A94EAF7982F9095932398831B
:10312000C2E2CE0FD0E09881892B8883A05EB0E008
:103130008C9190E002C0959587952A95E2F7817071
:10314000E05EF0E0208130E002C0359527954A9599
:10315000E2F792E020FF90E0892B8093A702909104
:10316000140181E098279093A302891B8093A20207
:10317000DF91CF910895CF93E091A702EE0FEE0F6C
:1031800020913901A22FA295AF70A05EB0E08C9182
:1031900090E02F7002C0959587952A95E2F781708F
:1031A000992740913801A42FA295AF70A05EB0E09E
:1031B0002C9130E04F7002C0359527954A95E2F783
:1031C000A9014170552720FF02C042E050E0842B46
:1031D000E82BE093A702C091A302EF70F0E0EF5458
:1031E000FE4F80819091A602890F8093A6028430C1
:1031F0006CF0EC2F0C2E000CFF0BEC55FD4F80817A
:103200008F5F808360E08C2F0E9453188091A6020C
:103210008D3F6CF4EC2F0C2E000CFF0BEC55FD4F8A
:1032200080818150808361E08C2F0E9453188091AF
:10323000A602082E000C990B64E070E00E94D632C2
:103240008093A602CF910895E091A302F0E0EC559F
:10325000FD4F2081FC0120830895FF920F931F935F
:10326000CF93DF93D091A2020D2F10E00C551D4F8C
:10327000FC01C081F8018081C81BFC2E1F1464F082
:103280008C2FC7FD80E0C81BC11110C0DF91CF910A
:103290001F910F91FF900895FA94F80180818F5F3C
:1032A000808360E08D2F0E945318E8CFCF5FF80134
:1032B00080818150808361E08D2F0E945318E4CF7C
:1032C0000F931F93CF93DF93C42FD22FFC018281E2
:1032D0008823C9F04093AA020E94BB2A9093A902B6
:1032E0008093A80280E28C0F883008F050C0C7702D
:1032F00081E001C0880FCA95EAF7DF91CF911F9155
:103300000F910C94691F1091AA02141335C080917B
:10331000A8029091A9020E94C72A883C910560F5F5
:10332000C0E2CD0F1D17B9F080E2810F883040F464
:10333000177081E001C0880F1A95EAF70E94701F8C
:10334000C83048F481E09D2F977001C0880F9A958E
:10335000EAF70E94691F802F0E94561FC830B8F4F8
:10336000D77081E001C0880FDA95EAF7DF91CF913D
:103370001F910F910C94701F80E28C0F883038F4ED
:10338000C77081E001C0880FCA95EAF7EFCFDF91DF
:10339000CF911F910F9108950F939C01CB01243F72
:1033A0004CE53407A1F190F4293DFCE53F0749F1D4
:1033B0002A3D4CE53407E9F1283D3C45C1F0FC01CC
:1033C00082818823E1F11092AA0219C0263FFCE510
:1033D0003F0719F1273F4CE5340729F1253F3C45CC
:1033E00071F707E225EE44EE65EF7CE505C006E2E5
:1033F00021EE41EE68ED7CE50E94601980E00F91BE
:10340000089507E225EE45EE69ED7CE5F5CF06E28D
:1034100021EE40EE64EF7CE5EFCF06E221EE42EED6
:1034200066EF7CE5E9CF07E225EE46EE67EF7CE547
:10343000E3CF08E221E045EE6AED7CE5DDCF81E0F7
:10344000DECFCF93DF93EC01FB018281882309F467
:10345000C9C0C631FCE5DF07E0F4C2309CE5D907FE
:10346000F0F00E94402990933D0380933C03C631C5
:10347000ECE5DE0720F5C230FCE5DF0798F480912B
:103480003C0390913D030E944E290E941E2280E041
:1034900006C09E012B5F3C452930310510F3DF91BA
:1034A000CF910895FE01E350FC4580913C0381607B
:1034B000E331F10588F4EB5BFB4C0C940C33CB5FF0
:1034C000DC45C930D105D8F6C85ADB4CFE010C9456
:1034D0000C3380913C03826080933C03D0CF809179
:1034E0003C038460F9CF80913C038860F5CF8091E4
:1034F0003D03816080933D03C2CF80913D03826094
:10350000F9CF80913C038061E7CF80913C038062DA
:10351000E3CF80913C038064DFCF0E941E22809124
:103520003C038068D9CF80913C038C60D5CF8091DB
:103530003D038360DFCF80913C038E7FCDCF8091B0
:103540003C038D7FC9CF80913C038B7FC5CF809199
:103550003C03877FC1CF80913D038E7FCBCF80918D
:103560003D038D7FC7CF80913C038F7EB5CF809187
:103570003C038F7DB1CF80913C038F7BADCF0E9408
:103580001E2280913C038F77A7CF80913C03837FDD
:10359000A3CF80913D038C7FADCF80913C0382FB14
:1035A000992790F921E0922790FB82F990FB83F90B
:1035B00093CF80913D03982F909591708E7F892BAA
:1035C00090FB81F997CF0E941E2290913C03892F96
:1035D00097FB87F9805880CF81E00E94D5294FCF93
:1035E00080E0FBCF81E05BCFCF93DF93EB018631AF
:1035F0009C4511F50E9462289A81992399F08A7A54
:1036000091E009F490E09093AB02811109C089E246
:103610000E943D280E94B12880E0DF91CF9108955B
:1036200085E3F6CF8091AB02811104C089E20E944C
:103630004428F0CF85E3FBCF81E0EFCF8EE1489BBC
:1036400002C08150E1F7489BFECF0895589880E270
:103650008A95F1F7589A0895FC013BE03A95F1F705
:1036600020E090E080E031E040E14A95F1F7880FFA
:10367000489B02C08160232742E04A95F1F7000091
:1036800040E14A95F1F79F5F6913EECF90E19A957B
:10369000F1F799B132E03A95F1F7000040E14A952F
:1036A000F1F7917092272081920F90830895EF9205
:1036B000FF920F931F93CF93DF930F92CDB7DEB797
:1036C00019828C017C01E60EF11C0E151F0561F4B8
:1036D00081E09981911180E00F90DF91CF911F914E
:1036E0000F91FF90EF9008950E941E1B68E0CE019D
:1036F00001960E942C1BF80181938F01E6CF9093D5
:10370000AE028093AD026093AC02509A589A08952D
:103710009093AE028093AD026093AC025098589A99
:10372000E89AE9E6F0E080818C7F8083089561501B
:10373000770B91E001C0990F6A95EAF720E031E03C
:10374000911108C0222391F0589A80E28A95F1F7EE
:1037500058980895492F482339F0589A232740E272
:103760004A95F1F79695ECCF5898F9CF5898EDCF48
:10377000FF920F931F93CF93DF93EC018C01060F01
:10378000111DC017D10731F4DF91CF911F910F9117
:10379000FF900895F9900E94261B68E08F2D0E94EB
:1037A000971BEFCF1F920F920FB60F9211240F931A
:1037B0001F932F933F934F935F936F937F938F93B9
:1037C0009F93AF93BF93EF93FF93CF93DF930F92AA
:1037D000CDB7DEB719820E941E1B67E0CE010196AD
:1037E0000E942C1B082F069506950695982F9295FA
:1037F0009570202F2570920F292F237096959695FE
:103800008770920F891344C08981811141C08091D2
:10381000AC028017E8F120E12A95F1F7589A509A06
:1038200082E08A95F1F700C0A8E00A9FC001112448
:103830000091AD021091AE02080F191F5898F801BF
:103840006581662321F0868197810E94B81B0E94C2
:10385000261BF0E1FA95F1F758985098589A20E114
:103860002A95F1F7D80112966C911297662331F1DF
:1038700013968D919C910E94571BD801ED91FC915C
:10388000882311F088E001C082E080830E941E1B23
:103890000F90DF91CF91FF91EF91BF91AF919F91E9
:1038A0008F917F916F915F914F913F912F911F91D8
:1038B0000F910F900FBE0F901F901895ED91FC91F6
:1038C000E1CF0F931F93CF93DF939C018091AC02C4
:1038D000821713060CF471C0890183E0000F111FD9
:1038E0008A95E1F7C091AD02D091AE02C00FD11F11
:1038F000F894509A589885E08A95F1F70000922F35
:10390000969595702570920F892F83709695969550
:10391000980F092B0E94261B00C067E0802F0E9491
:10392000971B80E18A95F1F75098589A489B17C0E9
:1039300087E090E0489915C06D81662321F18E8162
:103940009F810E94571B81111EC0509A589AE8818E
:10395000F98182E08083789482E090E00DC000C01D
:10396000E5CF019771F4509A589AE881F98181E086
:103970008083789481E090E0DF91CF911F910F9147
:10398000089500C0D7CF0E941E1B80E28A95F1F7F0
:103990005898509A80E18A95F1F76A81662321F060
:1039A0008B819C810E94B81B0E94261BE881F981B3
:1039B0001082789490E080E0DFCF84E090E0DCCF6C
:1039C0009093B4028093B3020895E091B302F09112
:1039D000B402309721F00190F081E02D099480E04D
:1039E0000895EF92FF920F931F93CF93DF938C0173
:1039F000E091B302F091B4023097B1F10280F3810B
:103A0000E02D09958091360382FF2EC080FF04C00F
:103A10008FEA98E00E947605E801780188E0E80ED8
:103A2000F11C09EA18E08091360380FF0BC0888101
:103A30001F928F931F930F930E940F060F900F906A
:103A40000F900F902196CE15DF0569F78091360310
:103A500080FF0AC087EA98E0DF91CF911F910F9114
:103A6000FF90EF900C947605DF91CF911F910F910D
:103A7000FF90EF9008952091B1023091B202281783
:103A8000390771F09093B2028093B102E091B302D2
:103A9000F091B402309721F00680F781E02D09946F
:103AA00008952091AF023091B0022817390771F0C4
:103AB0009093B0028093AF02E091B302F091B40210
:103AC000309721F00084F185E02D0994089585B7A1
:103AD000806885BF85B7806885BF0895089508957B
:103AE0000C946E1D08950C94721D0E94671D0E9417
:103AF0006F1D0C94701D0C94F60A089508950E9491
:103B0000B22A0E9483090E941E2B0E9439160E942D
:103B10009E130E9455180C94731DCF93C82F80914B
:103B2000360382FF1EC080FF1CC088EC98E00E9414
:103B300076058091360380FF14C01F92CF9383ECEB
:103B400098E09F938F930E940F06809136030F9009
:103B50000F900F900F9080FF04C081EC98E00E94BE
:103B600076058C2FCF910C940107BF92CF92DF92F4
:103B7000EF92FF920F931F93CF93DF9300D000D06B
:103B80000F92CDB7DEB70E947D1D0E947E1D0E9460
:103B9000350A0E947B1D882309F462C086EBC82E7B
:103BA00082E0D82E10E000E0B02E802F0E94150990
:103BB000F82EF601E1906F01E81609F44BC08091F0
:103BC000360381FD0E941B099E2D9F2580E0EE2477
:103BD000E394292F2E21C9F18983BA82FE2081E046
:103BE00009F480E08B830E94BB2A8160782F9D833B
:103BF0008C8349815A816B818D810E94501EF8010E
:103C0000EA54FD4F8081E826E0820E94C5140E949C
:103C100013180E94BB180E94E51C9091B5028917E9
:103C200081F10E94E51C8093B5020F900F900F90D8
:103C30000F900F90DF91CF911F910F91FF90EF9018
:103C4000DF90CF90BF900C948D1D8F5FEE0C86306F
:103C500009F0BFCF0F5F1F4F0A30110509F0A4CF45
:103C60008FEF89838A831B820E94BB2A8160782F11
:103C70009D838C8349815A816B818D810E94501E66
:103C8000C4CF0F900F900F900F900F90DF91CF91B6
:103C90001F910F91FF90EF90DF90CF90BF9008950C
:103CA000CF93DF93CDB7DEB72B970FB6F894DEBF77
:103CB0000FBECDBF4F83588769877A878B871E8257
:103CC00085E0FE013796DE01119601900D928A95EE
:103CD000E1F749815A816B817C818D819E812B9690
:103CE0000FB6F894DEBF0FBECDBFDF91CF910C941D
:103CF0008024FC01808191810C940728CF93C82FE8
:103D0000882309F482C08238C1F40E94E51C81FD39
:103D10007CC089E30E943D280E94B1282FEF31EE3C
:103D200084E0215030408040E1F700C0000089E38A
:103D30000E944428CF910C94B1288338A1F40E94AA
:103D4000E51C80FD62C083E50E943D280E94B128E9
:103D50009FEF21EE34E0915020403040E1F700C069
:103D6000000083E5E5CF8438A1F40E94E51C82FDC4
:103D70004CC087E40E943D280E94B1288FEF91EE4D
:103D800024E0815090402040E1F700C0000087E42B
:103D9000CFCF8CEF8C0F813A90F46C2F80913A0149
:103DA00090913B010E94EC29882329F08C2F0E94DE
:103DB00044280E94B1288C2F0E943D28BBCF80E26E
:103DC0008C0F883048F4C77081E001C0880FCA9515
:103DD000EAF70E946528AECF8BE58C0F833038F46C
:103DE0002C2F2452330BC901CF910C943B1DC85A80
:103DF000C73158F4EC2FF0E0EE0FFF1FEF53FE4FEA
:103E000080819181CF910C94511DCF910895882389
:103E100009F44BC0823871F40E94E51C81FF45C053
:103E200089E30E943D280E94B12889E30E9444282A
:103E30000C94B128833859F40E94E51C80FF35C0EA
:103E400083E50E943D280E94B12883E5EFCF8438A6
:103E500059F40E94E51C82FF28C087E40E943D2897
:103E60000E94B12887E4E2CF9CEF980F913AF0F2DC
:103E700090E2980F983050F4877091E001C0990F4C
:103E80008A95EAF7892F0E946B28D2CF9BE5980F7D
:103E9000933020F490E080E00C943B1D885A8731E9
:103EA00020F490E080E00C94511D0895CF93C82F2A
:103EB0000E947E1EC93349F42FEF87EE93E0215014
:103EC00080409040E1F700C000008C2FCF910C940F
:103ED000071F882321F00E9465280C94B1280895BB
:103EE000882321F00E946B280C94B1280895AF928A
:103EF000BF92CF92DF92EF92FF920F931F93CF93D7
:103F0000DF9300D000D00F92CDB7DEB76C016D8388
:103F10007983FC01058102950F70128111110E94B5
:103F200084280E945B28E82E882391F01123D1F089
:103F30008981807F803421F08D81805E883090F08F
:103F400082E00E94FC280E945B2891E0E82EE9268E
:103F5000A980A2949FE0A922B12CF501EF59FB4C56
:103F60000C940C33E12CF4CF09810F70F981F07FB0
:103F700011F00295007F1123B1F0002361F08D81D3
:103F8000805E883018F02D81211109C0802F0E9499
:103F900065280E94B1288D810E947E1E15C0802F49
:103FA0000E947628F6CF8D810E94071F002361F0C2
:103FB0008D81805E883018F04D81411133C0802F93
:103FC0000E946B280E94B12848E0A41AB10854E06E
:103FD000A516B10420F40E94E51C0E940107EE2002
:103FE00009F4CBC10E94572880FDC7C1F601128297
:103FF0000E9451280E945C26C6010E94E4210E9472
:1040000051280F900F900F900F900F90DF91CF914C
:104010001F910F91FF90EF90DF90CF90BF90AF90E6
:104020000C948D26802F0E947C28CCCF59815F7004
:10403000F52E6981607F603219F0F29480EFF822EA
:104040007D81772369F0713049F1112391F10023CB
:1040500051F1F601858180FF9ECF8F70858323C04B
:10406000112381F0011106C00E9498288F290E9417
:10407000691FAACF0130C1F70E9498288F290E949A
:104080009E28A2CF011106C00E94A7288F2D0E9452
:10409000701F9ACF013009F497CFF6CF112329F082
:1040A000063008F091CF8F2DE2CF053008F08CCF8D
:1040B000EDCF002359F3FD81F93349F42FEF47EE9B
:1040C00053E0215040405040E1F700C000008D8196
:1040D0000E94071F79CF898186958695837069F044
:1040E000813009F071CF8D8199819370111102C0D7
:1040F00090E080E00E94511D67CF8D81998193707F
:10410000111102C090E080E00E943B1D5DCF8981CB
:10411000837009F050C0111157CF4D8142954695DB
:104120004770440F440F8D818F7090E0B0E0A0E0A5
:10413000042E04C0880F991FAA1FBB1F0A94D2F730
:104140006D8100E010E0980164FF0FC00FE010E007
:1041500020E030E004C0000F111F221F331F4A95DA
:10416000D2F70095109520953095798176957695C2
:1041700073707D83B901A801482B592B6A2B7B2BC7
:1041800049835A836B837C835D8169817A818B81CA
:104190009C81523051F0533059F0513019F00E9447
:1041A000D22512CF0E94AA250FCF0E94FA250CCF4C
:1041B0000E94A82509CF112309F445C0698160FF39
:1041C00003CF4D81429546954770440F440F8D8132
:1041D0008F7090E0B0E0A0E0042E04C0880F991F1B
:1041E000AA1FBB1F0A94D2F7ED8100E010E09801EE
:1041F000E4FF0FC00FE010E020E030E004C0000F4B
:10420000111F221F331F4A95D2F700951095209554
:104210003095F981F695F695F370FD83B901A80103
:10422000482B592B6A2B7B2B49835A836B837C83C6
:10423000F230A1F0F330C9F0F13049F0CB01BA010E
:104240000E941B27C1CE798171FFBECEBACF698192
:104250007A818B819C810E94F326B6CE69817A8116
:104260008B819C810E944327AFCE69817A818B81AB
:104270009C810E942626A8CE59815F705983112304
:1042800029F0852F0E945C268D81F1CE8D810E94C0
:10429000701F89810E948D2697CE6D81623F99F1B2
:1042A00060F4603FD9F0613F39F1112309F444C053
:1042B000011171CE89818F7123C07D81733F41F1DE
:1042C000743F99F7112371F189818F7189830E945D
:1042D0005C2663E089810E94E72876CE112341F0B5
:1042E000053008F071CE89818F710E94C2266CCE94
:1042F000063008F069CEF7CF89818F71112351F212
:104300000E945C2661CE89818F711123C9F3C2CFCF
:10431000112329F089818F710E94372655CE0E9482
:10432000322652CE81E00E94FC28023008F44CCEA6
:1043300082E00E94FC2848CE002361F09D819933E1
:1043400009F0C5CEEFEFF7EE23E0E150F04020405A
:10435000E1F7BBCE89818F719DCF49814F706D810F
:10436000C6010E9409070E941A252ECE49814F706E
:104370006D81C6010E940C0727CE0F900F900F9001
:104380000F900F90DF91CF911F910F91FF90EF90C1
:10439000DF90CF90BF90AF9008950F931F93CF936E
:1043A000DF93EC01688179818A810E9413288C0156
:1043B0000E946B270E94A725B801CE01DF91CF9103
:1043C0001F910F910C94771FCF93DF93EC018B819A
:1043D0009C81892B29F08981988189238F3F59F409
:1043E000DF91CF910895CE010E94CD21CE01DF91C2
:1043F000CF910C947306CE010E949C068111F3CFDD
:104400000E945B28882361F38A81882349F382E034
:10441000DF91CF910C94FC280E9484280E9495285B
:104420000E94B12890E080E00E943B1D90E080E077
:104430000C94511D0E944B280C940C220E9473284E
:104440000C941A22282F892F82958F70903C80F42B
:104450008A30B0F4843020F4823090F480E0089503
:104460008630E1F781E0283E88F0213FB9F70EC0A1
:104470008C3011F08F3091F793FB882780F90895E5
:1044800081E0203F39F018F4283E40F70895243F9A
:1044900029F7FCCF08950E9407280C942222CF937D
:1044A000DF9300D000D00F92CDB7DEB70F900F9002
:1044B0000F900F900F90DF91CF910895CF93DF93DE
:1044C00000D000D000D0CDB7DEB726960FB6F89456
:1044D000DEBF0FBECDBFDF91CF9108951F93CF9365
:1044E000DF93E091C10216E08091C2028E1304C0F6
:1044F000DF91CF911F910895CE2FD0E01E9FF00144
:104500001124ED53FD4F408151816281738184817B
:1045100095810E945E22FE013196E770E5CF4091C1
:10452000F3025091F4026091F5027091F6028091CD
:10453000F7029091F8020C945E221F93CF93DF93C1
:104540008091F802807FA9F48091F502882389F098
:104550008091C102C091C2027091F3026091F40295
:10456000A091F602B091F702D62FD72316E0C81318
:1045700004C0DF91CF911F91089590E0109711F042
:10458000DF3F19F401968770F2CF189F9001199FB1
:10459000300D1124F901ED53FD4F41816413F2CF29
:1045A00040814713EFCF42814111ECCF43815481C9
:1045B0004A1B5B0B483C510528F78091F8028F702D
:1045C00080618093F802F901E853FD4F80818F707C
:1045D0008061808383EF92E00E94E421DF91CF919C
:1045E0001F910C946E22AF92BF92CF92DF92EF9206
:1045F000FF920F931F93CF93DF93CDB7DEB72B9727
:104600000FB6F894DEBF0FBECDBF8C0185E0F80178
:10461000DE01179601900D928A95E1F7F80140812D
:104620005181E28083EFA82E82E0B82E6091F602DD
:104630007091F7026115710549F09091F302209194
:10464000F402892F82238F3F09F045C1EE2009F43F
:1046500053C14F8358878F8198850E944B22F82E33
:10466000882309F449C186E0F801A3EFB2E0019084
:104670000D928A95E1F783EF92E00E94791E0E94E5
:104680009D2226C18091F802382F307F683C710549
:1046900008F07CC03111B5C0FE2C251324C0941342
:1046A00022C0E11020C08F7080618093F8020E94C8
:1046B0008F2283EF92E00E94E4218091F802F801BA
:1046C00085838F2D2B960FB6F894DEBF0FBECDBF1E
:1046D000DF91CF911F910F91FF90EF90DF90CF90DE
:1046E000BF90AF900895CD2829F0842F85238F3F68
:1046F00009F084C080E0F82FF170DF2EE091C10254
:104700002091C20236E080FD1CC0EE20D1F28091E3
:10471000F80281608093F802F12CD3CF8E2F90E0C5
:104720003E9FF0011124ED53FD4F6181651306C0DA
:104730006081641303C062816E11E7CFFC01319682
:10474000E770E213EBCF4F8358878F8198850E94E3
:104750000728292F22952F70903260F0225F2F704A
:10476000223078F49F7051F0F8019581907F31F4F8
:10477000D12C0AC09F7011F08823D1F3805E88305D
:10478000B8F3C8010E94E421FD2C9BCF31116EC00B
:104790006E2D7A858B850E944F2283EF92E00E94D6
:1047A000E42186E0F50111928A95E9F70E948F22B3
:1047B000B3CF86E0F801A3EFB2E001900D928A95A5
:1047C000E1F77FCF4F8358878F8198850E944B22D6
:1047D00081113DC08091F80281608093F802C80188
:1047E0000E94E4216ECF6E2D7A858B850E944F2228
:1047F00086E0F50111928A95E9F76AC081E08E257D
:104800007ACF251306C0941304C0F801EE2009F4F2
:1048100053C04F8358878F8198850E944B228823ED
:1048200009F46AC0EE2009F467C08091F802803272
:1048300070F02091F3023091F4023A8329831B82B5
:10484000DD82CC828E83CE0101960E94E42186E037
:10485000F801A3EFB2E001900D928A95E1F70E9472
:104860009D220E948F22FF24F3942BCF2513D1CFBA
:104870009413CFCFE110CDCFF8018583C8010E94FA
:10488000E42186E0F50111928A95E9F71ACF251304
:1048900099CF941397CF8091F80280FD8ACF982FFB
:1048A000907F09F486CFF8018583903F31F0982FEF
:1048B000907F905F8F70892B8583C8010E94E421CF
:1048C00086E0F801A3EFB2E001900D928A95E1F73E
:1048D0000E948F22F6CEC380D480F090F502F601BC
:1048E000E61BF70BBF01F110CDCE683C710508F057
:1048F0007ACFFE2CE110CBCFC8010E94E421B3CFC8
:104900001F93CF93DF93CDB7DEB72C970FB6F894F4
:10491000DEBF0FBECDBF4F83588769877A878B87ED
:104920009C87CE0107960E94F322882369F08A852E
:104930009B85892B39F058854F81852F84238F3FA4
:1049400009F071C016E05FC086E0FE013796DE0117
:10495000119601900D928A95E1F78A859B85892BA6
:1049600089F38F81988589238F3F61F32091C2025B
:1049700030E0C9010196877099274091C10248171C
:10498000190671F40E941E221092C2021092C102F6
:1049900086E0E3EFF2E0DF011D928A95E9F7D2CFDE
:1049A00096E0929FD001939FB00D1124AD53BD4F5F
:1049B000FE01319601900D929A95E1F78093C20223
:1049C0000E946E22BFCF819FC00111248D539D4F45
:1049D0000E94F3228823E9F0E091C1021E9FF001BA
:1049E0001124ED53FD4F4081518162817381848197
:1049F00095810E945E228091C10290E001968770AD
:104A000099278093C1028091C1029091C2028913BB
:104A1000DACF2C960FB6F894DEBF0FBECDBFDF9174
:104A2000CF911F91089569857A858B859C850E9419
:104A30005E2288CFEF92FF920F931F93CF93DF9365
:104A40008C01892B89F0F12CEE24E394E801219666
:104A5000F8018491843709F458C0A0F4823009F435
:104A60003FC048F48130D1F0DF91CF911F910F9179
:104A7000FF90EF9008959CEF980F9037A8F70E9451
:104A80007E1E0AC0853709F44EC09CE7980F903708
:104A900058F78F770E94071F8E0116C00E5F1F4FB9
:104AA000FE01849190E2980F983060F48770FE2D9B
:104AB00001C0FF0F8A95EAF78F2F0E9487280E9476
:104AC000B12802C00E947E1E8F2D882309F4BECF1C
:104AD000EFE9FFE03197F1F700C000008150F5CF1A
:104AE0000E5F1F4FFE01849190E2980F983050F4B2
:104AF0008770FE2D01C0FF0F8A95EAF78F2F0E9465
:104B00008D28DDCF0E94071FDFCF0E5F1F4FFE01F4
:104B1000C491CC23C9F28FE99FE00197F1F700C05F
:104B20000000C150F6CF0E5F1F4FFE01F490CCCFB6
:104B300008950C9498250E949925609325037093FD
:104B4000260380932703909328030C940C22089546
:104B50000C949B25CF93DF9300D000D0CDB7DEB768
:104B600069837A838B839C838091250390912603AC
:104B7000A0912703B091280329813A814B815C8160
:104B8000282B392B4A2B5B2B29833A834B835C835D
:104B9000CA01B9010F900F900F900F90DF91CF9144
:104BA0000C949B25CF93DF9300D000D0CDB7DEB718
:104BB00069837A838B839C8380912503909126035C
:104BC000A0912703B091280329813A814B815C8110
:104BD000282339234A235B2329833A834B835C832D
:104BE000CA01B9010F900F900F900F90DF91CF91F4
:104BF0000C949B25CF93DF9300D000D0CDB7DEB7C8
:104C000069837A838B839C8380912503909126030B
:104C1000A0912703B091280329813A814B815C81BF
:104C2000282739274A275B2729833A834B835C83CC
:104C3000CA01B9010F900F900F900F90DF91CF91A3
:104C40000C949B250C9498250C9422260E942426D3
:104C50006093210370932203809323039093240392
:104C60000C940C2260E070E0CB010C9426260F938C
:104C70001F93CF93DF9300D000D0CDB7DEB741E0D4
:104C800050E060E070E08A019B0104C0000F111F3A
:104C9000221F331F8A95D2F709831A832B833C8303
:104CA000C901B8010F900F900F900F90DF91CF9135
:104CB0001F910F910C9426260F931F93CF93DF9390
:104CC00000D000D0CDB7DEB741E050E060E070E04A
:104CD00004C0440F551F661F771F8A95D2F7809135
:104CE000210390912203A0912303B09124038A0110
:104CF0009B01082B192B2A2B3B2B09831A832B830F
:104D00003C83C901B8010F900F900F900F90DF9175
:104D1000CF911F910F910C9426260F931F93CF9341
:104D2000DF9300D000D0CDB7DEB741E050E060E0C7
:104D300070E004C0440F551F661F771F8A95D2F795
:104D40004095509560957095809121039091220334
:104D5000A0912303B09124038A019B010823192306
:104D60002A233B2309831A832B833C83C901B8017F
:104D70000F900F900F900F90DF91CF911F910F9197
:104D80000C9426260F931F93CF93DF9300D000D06F
:104D9000CDB7DEB741E050E060E070E004C0440F02
:104DA000551F661F771F8A95D2F780912103909136
:104DB0002203A0912303B09124038A019B010827B9
:104DC00019272A273B2709831A832B833C83C90190
:104DD000B8010F900F900F900F90DF91CF911F911E
:104DE0000F910C942626CF93DF9300D000D0CDB73F
:104DF000DEB769837A838B839C83809121039091B2
:104E00002203A0912303B091240329813A814B818D
:104E10005C81282B392B4A2B5B2B29833A834B83CC
:104E20005C83CA01B9010F900F900F900F90DF9132
:104E3000CF910C942626CF93DF9300D000D0CDB72E
:104E4000DEB769837A838B839C8380912103909161
:104E50002203A0912303B091240329813A814B813D
:104E60005C81282339234A235B2329833A834B839C
:104E70005C83CA01B9010F900F900F900F90DF91E2
:104E8000CF910C942626CF93DF9300D000D0CDB7DE
:104E9000DEB769837A838B839C8380912103909111
:104EA0002203A0912303B091240329813A814B81ED
:104EB0005C81282739274A275B2729833A834B833C
:104EC0005C83CA01B9010F900F900F900F90DF9192
:104ED000CF910C9426260895292F220FE22FE90F57
:104EE000EE0FE80F8E2F877041E001C0440F8A95C6
:104EF000EAF7E695E695E69585E0E89FF00111244E
:104F0000E750FD4F30E020E070E05191DF01119754
:104F1000CB01022E02C0969587950A94E2F7817024
:104F200081958527842385278C932F5F3F4F2530DC
:104F3000310559F70895292F220FE22FE90FEE0FBF
:104F4000E80F9E2F9770E695E695E69585E0E89F39
:104F5000F0011124E750FD4F50E040E080E0219146
:104F600030E0092E02C0369527950A94E2F72170A9
:104F70003327042E01C0220F0A94EAF7822B4F5FD9
:104F80005F4F4530510559F70895BF92CF92DF9298
:104F9000EF92FF920F931F93CF93DF938C01C090FA
:104FA0002103D0902203E0902303F090240380910A
:104FB000250390912603A0912703B0912803C82AC6
:104FC000D92AEA2AFB2ACFE1D0E0BC2ED701C601BC
:104FD0000C2E04C0B695A795979587950A94D2F79D
:104FE00080FD0EC0219788F7B12C8B2DDF91CF91DA
:104FF0001F910F91FF90EF90DF90CF90BF90089599
:10500000B8018C2F0E942907019761F3EECFCF934F
:10501000DF93D82FC92F0E94C5276D2F7C2FDF91DA
:10502000CF910C9429071F93CF93DF93162FD72F7F
:105030009091C002992339F0862F972FDF91CF915D
:105040001F910C940728882391F0862F972F0E9498
:10505000C527C82F682F812F9D2F0E946C27612F95
:105060007D2F8C2FDF91CF911F910C942907862FD4
:10507000972F0E949B27C82FF2CF682F80913A016B
:1050800090913B010C94262A682F80913A019091CF
:105090003B010C94282A80913A0190913B010C9499
:1050A0002A2A809129038595859585950895809173
:1050B00029038770089590912903977081E009F47E
:1050C00080E0089580913503089590913503982BE1
:1050D000909335030895982F9095809135038923F7
:1050E0008093350308951092350308959091340309
:1050F000982B909334030895982F909580913403C2
:105100008923809334030895109234030895909175
:105110003303982B909333030895982F90958091A3
:105120003303892380933303089510923303089542
:1051300080912A03089508950C949B2890912A0346
:10514000981721F080932A030C949C28089580914D
:105150002A03882329F010922A0380E00C949C28CB
:105160000895E0913A01F0913B01809135038083ED
:10517000E0913A01F0913B01808190913403892BB9
:105180008083E0913A01F0913B018081909133035B
:10519000892B808390912A03992381F0E0913A0131
:1051A000F0913B018081892B808380913A0190911D
:1051B0003B010E94DA2981110E94A72880913A01BF
:1051C00090913B010C94F11C08950C94E42898E014
:1051D000899F90011124622B609329030E945C2611
:1051E000809129038595859585950C94E5281092E5
:1051F000290380E00C94E528909129038095892368
:1052000080932903282F277071F4282F082E000C73
:10521000330B9217130639F08595859585950E9475
:105220008D260C94F72808959093FF018093FE013A
:105230000895829594E0899F900111242C7C869595
:1052400086958373282B30E0C901880F991F8A7ACD
:10525000359527952575822B089590E080E00E9472
:10526000D6339C0181E02C3E3E4F09F080E008954A
:1052700082E090E00C94C83383E090E00C94C83353
:10528000CF9384E090E00E94C833C82F81E290E081
:105290000E94C833982F8C2FCF910895CF93682FF9
:1052A000C92F84E090E00E94DC336C2F81E290E013
:1052B000CF910C94DC3386E090E00C94C833682FD7
:1052C00086E090E00C94DC33AB01BC018FE090E011
:1052D0000C94EE33AB01BC0183E190E00C94EE330F
:1052E00060E070E0CB010C946A296CEE7EEF90E0F8
:1052F00080E00E94FA3360E082E090E00E94DC33BC
:1053000060E083E090E00E94DC331092250310926D
:105310002603109227031092280360E084E090E0B7
:105320000E94DC3360E081E290E00E94DC3360E0C8
:1053300085E090E00E94DC3360E086E090E00E942F
:10534000DC336FEF87E090E00E94DC3340E050E018
:10535000BA0188E090E00E94EE3360E08DE090E0DA
:105360000E94DC3340E050E0BA0188E190E00E9406
:10537000EE3360E087E190E00E94DC3340E050E0F3
:10538000BA018CE190E00E94EE3360E080E290E0B0
:105390000E94DC3340E050E0BA0188E190E00E94D6
:1053A000EE330C9418060C947529682F8EE090E06B
:1053B0000C94DC33AC019C012E5F3F4F485F5F4F84
:1053C00080E02417350709F40895F90191919F01B0
:1053D0009923B9F38F5FF5CF9C01662351F0FC014F
:1053E0003296285F3F4F8191861729F0E217F30725
:1053F000D1F780E0089581E008959C01FC01329688
:105400008FEF90E04191461751F08F3F19F4411111
:1054100001C0892F9F5F9630A9F78F3F09F4089547
:10542000280F311D87FD3A95F901628308959C018B
:10543000FC013296285F3F4F8191861303C0DF0144
:1054400011971C92E217F307B9F708950C94FD2900
:105450000C94172AFC01329686E0DF011D928A9592
:10546000E9F70895089508950C94332A0E94342A88
:1054700080914E03843061F11092370388E190E00F
:1054800020E40FB6F894A895809360000FBE209397
:10549000600080E00E94A61780E00E9401070E9441
:1054A000342A83B7817F846083BF83B7816083BFE1
:1054B0007894889583B78E7F83BF0FB6F894A895AC
:1054C00080916000886180936000109260000FBE40
:1054D00008950895CF930E94322A0E94350A0E94AF
:1054E000692AC0E08C2F0E941509811105C0CF5F89
:1054F000CA30C1F7CF91089581E0FCCF08950C9494
:105500007E2A0E941E220E9439160E94E51C0E94DB
:1055100001070C947F2A1F921FB61F9211248F93AC
:105520009F93AF93BF9380913703811113C08091F4
:10553000380390913903A0913A03B0913B0341960F
:10554000A11DB11D8093380390933903A0933A03B2
:10555000B0933B03BF91AF919F918F911F901FBE5E
:105560001F90189582E084BD93E095BD9AEF97BD9A
:1055700080936E0008952FB7F8948091380390912E
:105580003903A0913A03B0913B032FBF08959C01CA
:105590004FB7F8948091380390913903A0913A0362
:1055A000B0913B034FBF821B930B089578941F92D9
:1055B0001FB61F9211248F939F93AF93BF93809137
:1055C000380390913903A0913A03B0913B030196BF
:1055D000A11DB11D8093380390933903A0933A0322
:1055E000B0933B03BF91AF919F918F911F901FBECE
:1055F0001F90189581E08093E00080E28093D800AE
:105600001092C9008FE19EE40197F1F700C00000FD
:1056100087E090EBDC018093580390935903A093AB
:105620005A03B0935B0388E19CE00FB6F894A89509
:10563000809360000FBE90936000FFCFCF93DF9305
:1056400000D000D0CDB7DEB70E942D29811102C055
:105650000E94D3290E943829809336030E94402952
:1056600090933D0380933C030E943C29282F30E017
:1056700050E040E0CA01B9010E94A82580912103B1
:1056800090912203A0912303B091240389839A83EC
:10569000AB83BC83BC01CD010F900F900F900F9096
:1056A000DF91CF910C9424268091490308950895A9
:1056B000CF93DF9300D00F92CDB7DEB790914E031A
:1056C000943019F589836A837B8382E08093E900B3
:1056D0008FEF9091E800815095FD06C095ED9A9569
:1056E000F1F700008111F5CF8091E80085FF0DC032
:1056F00050E040E063E070E0CE0101960E94122E7F
:105700008091E8008E778093E8000F900F900F90C3
:10571000DF91CF910895BC0184E00C94582BBC011B
:1057200083E00C94582BCF93DF93D82FC92F81E0BF
:105730008093E9008FEF9091E800815095FD06C0BD
:1057400095ED9A95F1F700008111F5CF8091E80071
:1057500085FF16C050E040E068E070E08D2F9C2F80
:105760000E94122E8091E8008E778093E80088E0F6
:10577000ED2FFC2FA1E4B3E001900D928A95E1F7A3
:10578000DF91CF9108959FB7F894109240039FBF87
:1057900090914E03943009F048C02091E9002F7099
:1057A0003091EC00932F917030FD90E8922B23E024
:1057B0002093E9002091EB0020FF34C02091EE00FF
:1057C00027FF30C020913E03222321F02091E800E2
:1057D00025FF28C010923E0326E03091E80035FFF7
:1057E00014C08093F1008091E80085FD27C080916E
:1057F000E80080FFFCCF8091E8008E778093E8007E
:105800009F709093E90080E0089530914E0334300A
:1058100049F43091EB0035FD05C0215041F481E0A1
:1058200080933E039F709093E9008FEF0895EFE916
:10583000FFE03197F1F700C00000CFCF8FB7F894A9
:1058400021E0209340038FBFDBCF80E099E00E94EE
:10585000760580915703811109C00E949A2F0E94FA
:10586000F72F8091E20084608093E20008958CEF2E
:1058700098E00E94760510925703089588EF98E00B
:105880000C94760584EF98E00C94760580EF98E010
:105890000E9476050C94812A20913F032F5F822F6E
:1058A00062E30E94A832992319F020933F030895E0
:1058B00010923F03809140038823F1F080914E03C2
:1058C0008430C1F49091E9009F702091EC00822F08
:1058D000817020FD80E8892B93E09093E9009091FE
:1058E000EB0090FF04C09091EE0097FD08C08F7010
:1058F0008093E9001092400308951092F100909176
:10590000E80095FDFACF9091E80090FFF0CF9091DC
:10591000E8009E779093E800EACF42E061EC81E0F6
:105920000E94162F42E261EC82E00E94162F42E2B2
:1059300061EC83E00C94162F80915003893089F13B
:1059400048F4823009F49DC0833009F458C0813096
:1059500041F008958A3009F484C08B3009F46AC09C
:10596000089580914F03813A09F048C08091E80082
:10597000877F8093E8008091530390915403892B93
:1059800061F468E081E493E070E00E94612E809110
:10599000E8008B778093E800089560E090E080E075
:1059A000F3CF80914F03813249F580915303909159
:1059B0005403029718F58091E800877F8093E800F0
:1059C0008091E80082FF16C09091F3008091F20070
:1059D000029729F48091F1008B7F813021F480912E
:1059E000F100809349038091E8008B778093E80071
:1059F0000C944A2F80914E038111E2CF089580913B
:105A00004F03813AD9F78091530390915403892B26
:105A1000A9F78091E800877F8093E8008091E800F3
:105A200080FFFCCF809146018093F1008091E800D7
:105A30008E77DCCF80914F03813201F78091530341
:105A400090915403892BD1F68091E800877F809351
:105A5000E8000E944A2F80915103809346010C94E4
:105A60001E2280914F03813249F68091E800877FA2
:105A70008093E8000E944A2F8091520380934A034A
:105A8000089580914F03813A09F0B8CF8091E800E2
:105A9000877F8093E8008091E80080FFFCCF8091B1
:105AA0004A03C2CF84B7877F84BF0FB6F894A89506
:105AB00080916000886180936000109260000FBE4A
:105AC00080E890E00FB6F8948093610090936100B5
:105AD0000FBE0E94751D0E949A2F0E94F72F809181
